{
  "_format": "hh-sol-artifact-1",
  "contractName": "OrganizationManager",
  "sourceName": "contracts/OrganizationManager.sol",
  "abi": [
    {
      "inputs": [],
      "stateMutability": "nonpayable",
      "type": "constructor"
    },
    {
      "anonymous": false,
      "inputs": [
        {
          "indexed": true,
          "internalType": "address",
          "name": "admin",
          "type": "address"
        },
        {
          "indexed": false,
          "internalType": "uint256",
          "name": "orgId",
          "type": "uint256"
        },
        {
          "indexed": false,
          "internalType": "string[]",
          "name": "newCategories",
          "type": "string[]"
        }
      ],
      "name": "HateSpeechCategoriesUpdated",
      "type": "event"
    },
    {
      "anonymous": false,
      "inputs": [
        {
          "indexed": true,
          "internalType": "address",
          "name": "admin",
          "type": "address"
        },
        {
          "indexed": false,
          "internalType": "uint256",
          "name": "orgId",
          "type": "uint256"
        },
        {
          "indexed": false,
          "internalType": "string",
          "name": "communityType",
          "type": "string"
        },
        {
          "indexed": false,
          "internalType": "string",
          "name": "context",
          "type": "string"
        },
        {
          "indexed": false,
          "internalType": "bool",
          "name": "isPrivate",
          "type": "bool"
        }
      ],
      "name": "OrganizationCreated",
      "type": "event"
    },
    {
      "anonymous": false,
      "inputs": [
        {
          "indexed": true,
          "internalType": "address",
          "name": "admin",
          "type": "address"
        },
        {
          "indexed": false,
          "internalType": "uint256",
          "name": "orgId",
          "type": "uint256"
        },
        {
          "indexed": false,
          "internalType": "string",
          "name": "communityType",
          "type": "string"
        },
        {
          "indexed": false,
          "internalType": "string",
          "name": "context",
          "type": "string"
        },
        {
          "indexed": false,
          "internalType": "bool",
          "name": "isPrivate",
          "type": "bool"
        }
      ],
      "name": "OrganizationUpdated",
      "type": "event"
    },
    {
      "inputs": [
        {
          "internalType": "string",
          "name": "_communityType",
          "type": "string"
        },
        {
          "internalType": "string",
          "name": "_context",
          "type": "string"
        },
        {
          "internalType": "string[]",
          "name": "_hateSpeechCategories",
          "type": "string[]"
        },
        {
          "internalType": "bool",
          "name": "_isPrivate",
          "type": "bool"
        }
      ],
      "name": "createOrganization",
      "outputs": [],
      "stateMutability": "nonpayable",
      "type": "function"
    },
    {
      "inputs": [],
      "name": "getAllOrganizationAddresses",
      "outputs": [
        {
          "internalType": "address[]",
          "name": "",
          "type": "address[]"
        }
      ],
      "stateMutability": "view",
      "type": "function"
    },
    {
      "inputs": [
        {
          "internalType": "address",
          "name": "_admin",
          "type": "address"
        }
      ],
      "name": "getAllOrganizations",
      "outputs": [
        {
          "components": [
            {
              "internalType": "uint256",
              "name": "orgId",
              "type": "uint256"
            },
            {
              "internalType": "string",
              "name": "communityType",
              "type": "string"
            },
            {
              "internalType": "string",
              "name": "context",
              "type": "string"
            },
            {
              "internalType": "string[]",
              "name": "hateSpeechCategories",
              "type": "string[]"
            },
            {
              "internalType": "address",
              "name": "admin",
              "type": "address"
            },
            {
              "internalType": "bool",
              "name": "isPrivate",
              "type": "bool"
            }
          ],
          "internalType": "struct OrganizationManager.Organization[]",
          "name": "",
          "type": "tuple[]"
        }
      ],
      "stateMutability": "view",
      "type": "function"
    },
    {
      "inputs": [],
      "name": "getAllOrganizationsGlobal",
      "outputs": [
        {
          "components": [
            {
              "internalType": "uint256",
              "name": "orgId",
              "type": "uint256"
            },
            {
              "internalType": "string",
              "name": "communityType",
              "type": "string"
            },
            {
              "internalType": "string",
              "name": "context",
              "type": "string"
            },
            {
              "internalType": "string[]",
              "name": "hateSpeechCategories",
              "type": "string[]"
            },
            {
              "internalType": "address",
              "name": "admin",
              "type": "address"
            },
            {
              "internalType": "bool",
              "name": "isPrivate",
              "type": "bool"
            }
          ],
          "internalType": "struct OrganizationManager.Organization[]",
          "name": "",
          "type": "tuple[]"
        }
      ],
      "stateMutability": "view",
      "type": "function"
    },
    {
      "inputs": [
        {
          "internalType": "address",
          "name": "_admin",
          "type": "address"
        },
        {
          "internalType": "uint256",
          "name": "_orgId",
          "type": "uint256"
        }
      ],
      "name": "getOrganizationById",
      "outputs": [
        {
          "internalType": "uint256",
          "name": "orgId",
          "type": "uint256"
        },
        {
          "internalType": "string",
          "name": "communityType",
          "type": "string"
        },
        {
          "internalType": "string",
          "name": "context",
          "type": "string"
        },
        {
          "internalType": "string[]",
          "name": "hateSpeechCategories",
          "type": "string[]"
        },
        {
          "internalType": "bool",
          "name": "isPrivate",
          "type": "bool"
        }
      ],
      "stateMutability": "view",
      "type": "function"
    },
    {
      "inputs": [],
      "name": "nextOrgId",
      "outputs": [
        {
          "internalType": "uint256",
          "name": "",
          "type": "uint256"
        }
      ],
      "stateMutability": "view",
      "type": "function"
    },
    {
      "inputs": [
        {
          "internalType": "uint256",
          "name": "",
          "type": "uint256"
        }
      ],
      "name": "organizationAddresses",
      "outputs": [
        {
          "internalType": "address",
          "name": "",
          "type": "address"
        }
      ],
      "stateMutability": "view",
      "type": "function"
    },
    {
      "inputs": [
        {
          "internalType": "address",
          "name": "",
          "type": "address"
        },
        {
          "internalType": "uint256",
          "name": "",
          "type": "uint256"
        }
      ],
      "name": "organizations",
      "outputs": [
        {
          "internalType": "uint256",
          "name": "orgId",
          "type": "uint256"
        },
        {
          "internalType": "string",
          "name": "communityType",
          "type": "string"
        },
        {
          "internalType": "string",
          "name": "context",
          "type": "string"
        },
        {
          "internalType": "address",
          "name": "admin",
          "type": "address"
        },
        {
          "internalType": "bool",
          "name": "isPrivate",
          "type": "bool"
        }
      ],
      "stateMutability": "view",
      "type": "function"
    },
    {
      "inputs": [
        {
          "internalType": "uint256",
          "name": "orgIndex",
          "type": "uint256"
        },
        {
          "internalType": "string[]",
          "name": "_newCategories",
          "type": "string[]"
        }
      ],
      "name": "updateHateSpeechCategories",
      "outputs": [],
      "stateMutability": "nonpayable",
      "type": "function"
    },
    {
      "inputs": [
        {
          "internalType": "uint256",
          "name": "orgIndex",
          "type": "uint256"
        },
        {
          "internalType": "string",
          "name": "_communityType",
          "type": "string"
        },
        {
          "internalType": "string",
          "name": "_context",
          "type": "string"
        },
        {
          "internalType": "bool",
          "name": "_isPrivate",
          "type": "bool"
        }
      ],
      "name": "updateOrganization",
      "outputs": [],
      "stateMutability": "nonpayable",
      "type": "function"
    }
  ],
  "bytecode": "0x608060405234801561001057600080fd5b506001600281905550612660806100286000396000f3fe608060405234801561001057600080fd5b506004361061009e5760003560e01c80638a5f067c116100665780638a5f067c1461015f578063a13c29c51461017d578063c8fbcbbb14610199578063db770955146101c9578063ea3a6ace146101fd5761009e565b806308ae3620146100a3578063335b5822146100c15780633a555eff146100f5578063477e915a1461012557806370325ab414610141575b600080fd5b6100ab610219565b6040516100b8919061208b565b60405180910390f35b6100db60048036038101906100d69190611a73565b6102a7565b6040516100ec9594939291906121bb565b60405180910390f35b61010f600480360381019061010a9190611a4a565b610616565b60405161011c91906120ad565b60405180910390f35b61013f600480360381019061013a9190611bd7565b61092b565b005b610149610b77565b60405161015691906120ad565b60405180910390f35b6101676110e3565b604051610174919061210f565b60405180910390f35b61019760048036038101906101929190611b83565b6110e9565b005b6101b360048036038101906101ae9190611b5a565b6112fa565b6040516101c09190612070565b60405180910390f35b6101e360048036038101906101de9190611a73565b611339565b6040516101f495949392919061215a565b60405180910390f35b61021760048036038101906102129190611aaf565b6114c9565b005b6060600180548060200260200160405190810160405280929190818152602001828054801561029d57602002820191906000526020600020905b8160009054906101000a900473ffffffffffffffffffffffffffffffffffffffff1673ffffffffffffffffffffffffffffffffffffffff1681526020019060010190808311610253575b5050505050905090565b600060608060606000806000808973ffffffffffffffffffffffffffffffffffffffff1673ffffffffffffffffffffffffffffffffffffffff168152602001908152602001600020905060005b81805490508110156105d0578782828154811061033a577f4e487b7100000000000000000000000000000000000000000000000000000000600052603260045260246000fd5b90600052602060002090600502016000015414156105bd57600082828154811061038d577f4e487b7100000000000000000000000000000000000000000000000000000000600052603260045260246000fd5b9060005260206000209060050201905080600001548160010182600201836003018460040160149054906101000a900460ff168380546103cc906124cc565b80601f01602080910402602001604051908101604052809291908181526020018280546103f8906124cc565b80156104455780601f1061041a57610100808354040283529160200191610445565b820191906000526020600020905b81548152906001019060200180831161042857829003601f168201915b50505050509350828054610458906124cc565b80601f0160208091040260200160405190810160405280929190818152602001828054610484906124cc565b80156104d15780601f106104a6576101008083540402835291602001916104d1565b820191906000526020600020905b8154815290600101906020018083116104b457829003601f168201915b5050505050925081805480602002602001604051908101604052809291908181526020016000905b828210156105a5578382906000526020600020018054610518906124cc565b80601f0160208091040260200160405190810160405280929190818152602001828054610544906124cc565b80156105915780601f1061056657610100808354040283529160200191610591565b820191906000526020600020905b81548152906001019060200180831161057457829003601f168201915b5050505050815260200190600101906104f9565b5050505091509750975097509750975050505061060c565b80806105c8906124fe565b9150506102f4565b506040517f08c379a0000000000000000000000000000000000000000000000000000000008152600401610603906120ef565b60405180910390fd5b9295509295909350565b60606000808373ffffffffffffffffffffffffffffffffffffffff1673ffffffffffffffffffffffffffffffffffffffff168152602001908152602001600020805480602002602001604051908101604052809291908181526020016000905b8282101561092057838290600052602060002090600502016040518060c0016040529081600082015481526020016001820180546106b3906124cc565b80601f01602080910402602001604051908101604052809291908181526020018280546106df906124cc565b801561072c5780601f106107015761010080835404028352916020019161072c565b820191906000526020600020905b81548152906001019060200180831161070f57829003601f168201915b50505050508152602001600282018054610745906124cc565b80601f0160208091040260200160405190810160405280929190818152602001828054610771906124cc565b80156107be5780601f10610793576101008083540402835291602001916107be565b820191906000526020600020905b8154815290600101906020018083116107a157829003601f168201915b5050505050815260200160038201805480602002602001604051908101604052809291908181526020016000905b8282101561089857838290600052602060002001805461080b906124cc565b80601f0160208091040260200160405190810160405280929190818152602001828054610837906124cc565b80156108845780601f1061085957610100808354040283529160200191610884565b820191906000526020600020905b81548152906001019060200180831161086757829003601f168201915b5050505050815260200190600101906107ec565b5050505081526020016004820160009054906101000a900473ffffffffffffffffffffffffffffffffffffffff1673ffffffffffffffffffffffffffffffffffffffff1673ffffffffffffffffffffffffffffffffffffffff1681526020016004820160149054906101000a900460ff16151515158152505081526020019060010190610676565b505050509050919050565b833373ffffffffffffffffffffffffffffffffffffffff166000803373ffffffffffffffffffffffffffffffffffffffff1673ffffffffffffffffffffffffffffffffffffffff16815260200190815260200160002082815481106109b9577f4e487b7100000000000000000000000000000000000000000000000000000000600052603260045260246000fd5b906000526020600020906005020160040160009054906101000a900473ffffffffffffffffffffffffffffffffffffffff1673ffffffffffffffffffffffffffffffffffffffff1614610a41576040517f08c379a0000000000000000000000000000000000000000000000000000000008152600401610a38906120cf565b60405180910390fd5b60008060003373ffffffffffffffffffffffffffffffffffffffff1673ffffffffffffffffffffffffffffffffffffffff1681526020019081526020016000208681548110610ab9577f4e487b7100000000000000000000000000000000000000000000000000000000600052603260045260246000fd5b9060005260206000209060050201905084816001019080519060200190610ae1929190611767565b5083816002019080519060200190610afa929190611767565b50828160040160146101000a81548160ff0219169083151502179055503373ffffffffffffffffffffffffffffffffffffffff167f1f53960b0266850807d950574775651dd51cc1cb760993a2528139ee0cb93f3c8260000154878787604051610b679493929190612223565b60405180910390a2505050505050565b60606000805b600180549050811015610c505760008060018381548110610bc7577f4e487b7100000000000000000000000000000000000000000000000000000000600052603260045260246000fd5b9060005260206000200160009054906101000a900473ffffffffffffffffffffffffffffffffffffffff1673ffffffffffffffffffffffffffffffffffffffff1673ffffffffffffffffffffffffffffffffffffffff1681526020019081526020016000208054905082610c3b91906123ec565b91508080610c48906124fe565b915050610b7d565b5060008167ffffffffffffffff811115610c93577f4e487b7100000000000000000000000000000000000000000000000000000000600052604160045260246000fd5b604051908082528060200260200182016040528015610ccc57816020015b610cb96117ed565b815260200190600190039081610cb15790505b5090506000805b6001805490508110156110d957600080600060018481548110610d1f577f4e487b7100000000000000000000000000000000000000000000000000000000600052603260045260246000fd5b9060005260206000200160009054906101000a900473ffffffffffffffffffffffffffffffffffffffff1673ffffffffffffffffffffffffffffffffffffffff1673ffffffffffffffffffffffffffffffffffffffff168152602001908152602001600020905060005b81805490508110156110c457818181548110610dce577f4e487b7100000000000000000000000000000000000000000000000000000000600052603260045260246000fd5b90600052602060002090600502016040518060c001604052908160008201548152602001600182018054610e01906124cc565b80601f0160208091040260200160405190810160405280929190818152602001828054610e2d906124cc565b8015610e7a5780601f10610e4f57610100808354040283529160200191610e7a565b820191906000526020600020905b815481529060010190602001808311610e5d57829003601f168201915b50505050508152602001600282018054610e93906124cc565b80601f0160208091040260200160405190810160405280929190818152602001828054610ebf906124cc565b8015610f0c5780601f10610ee157610100808354040283529160200191610f0c565b820191906000526020600020905b815481529060010190602001808311610eef57829003601f168201915b5050505050815260200160038201805480602002602001604051908101604052809291908181526020016000905b82821015610fe6578382906000526020600020018054610f59906124cc565b80601f0160208091040260200160405190810160405280929190818152602001828054610f85906124cc565b8015610fd25780601f10610fa757610100808354040283529160200191610fd2565b820191906000526020600020905b815481529060010190602001808311610fb557829003601f168201915b505050505081526020019060010190610f3a565b5050505081526020016004820160009054906101000a900473ffffffffffffffffffffffffffffffffffffffff1673ffffffffffffffffffffffffffffffffffffffff1673ffffffffffffffffffffffffffffffffffffffff1681526020016004820160149054906101000a900460ff161515151581525050858581518110611098577f4e487b7100000000000000000000000000000000000000000000000000000000600052603260045260246000fd5b602002602001018190525083806110ae906124fe565b94505080806110bc906124fe565b915050610d89565b505080806110d1906124fe565b915050610cd3565b5081935050505090565b60025481565b813373ffffffffffffffffffffffffffffffffffffffff166000803373ffffffffffffffffffffffffffffffffffffffff1673ffffffffffffffffffffffffffffffffffffffff1681526020019081526020016000208281548110611177577f4e487b7100000000000000000000000000000000000000000000000000000000600052603260045260246000fd5b906000526020600020906005020160040160009054906101000a900473ffffffffffffffffffffffffffffffffffffffff1673ffffffffffffffffffffffffffffffffffffffff16146111ff576040517f08c379a00000000000000000000000000000000000000000000000000000000081526004016111f6906120cf565b60405180910390fd5b60008060003373ffffffffffffffffffffffffffffffffffffffff1673ffffffffffffffffffffffffffffffffffffffff1681526020019081526020016000208481548110611277577f4e487b7100000000000000000000000000000000000000000000000000000000600052603260045260246000fd5b906000526020600020906005020190508281600301908051906020019061129f92919061183b565b503373ffffffffffffffffffffffffffffffffffffffff167f5be17eb02029781349250ec247b059b82e6107517b65b6493bd304f0636a8e0b8260000154856040516112ec92919061212a565b60405180910390a250505050565b6001818154811061130a57600080fd5b906000526020600020016000915054906101000a900473ffffffffffffffffffffffffffffffffffffffff1681565b6000602052816000526040600020818154811061135557600080fd5b90600052602060002090600502016000915091505080600001549080600101805461137f906124cc565b80601f01602080910402602001604051908101604052809291908181526020018280546113ab906124cc565b80156113f85780601f106113cd576101008083540402835291602001916113f8565b820191906000526020600020905b8154815290600101906020018083116113db57829003601f168201915b50505050509080600201805461140d906124cc565b80601f0160208091040260200160405190810160405280929190818152602001828054611439906124cc565b80156114865780601f1061145b57610100808354040283529160200191611486565b820191906000526020600020905b81548152906001019060200180831161146957829003601f168201915b5050505050908060040160009054906101000a900473ffffffffffffffffffffffffffffffffffffffff16908060040160149054906101000a900460ff16905085565b60006002549050600260008154809291906114e3906124fe565b91905055506000803373ffffffffffffffffffffffffffffffffffffffff1673ffffffffffffffffffffffffffffffffffffffff1681526020019081526020016000206040518060c001604052808381526020018781526020018681526020018581526020013373ffffffffffffffffffffffffffffffffffffffff16815260200184151581525090806001815401808255809150506001900390600052602060002090600502016000909190919091506000820151816000015560208201518160010190805190602001906115ba929190611767565b5060408201518160020190805190602001906115d7929190611767565b5060608201518160030190805190602001906115f492919061183b565b5060808201518160040160006101000a81548173ffffffffffffffffffffffffffffffffffffffff021916908373ffffffffffffffffffffffffffffffffffffffff16021790555060a08201518160040160146101000a81548160ff021916908315150217905550505060016000803373ffffffffffffffffffffffffffffffffffffffff1673ffffffffffffffffffffffffffffffffffffffff16815260200190815260200160002080549050141561170c576001339080600181540180825580915050600190039060005260206000200160009091909190916101000a81548173ffffffffffffffffffffffffffffffffffffffff021916908373ffffffffffffffffffffffffffffffffffffffff1602179055505b3373ffffffffffffffffffffffffffffffffffffffff167f1a0ac5b8a5820b2fbaf4a719ebcc98d740c1cce6b206aebb0ed7353cdabcfac8828787866040516117589493929190612223565b60405180910390a25050505050565b828054611773906124cc565b90600052602060002090601f01602090048101928261179557600085556117dc565b82601f106117ae57805160ff19168380011785556117dc565b828001600101855582156117dc579182015b828111156117db5782518255916020019190600101906117c0565b5b5090506117e9919061189b565b5090565b6040518060c0016040528060008152602001606081526020016060815260200160608152602001600073ffffffffffffffffffffffffffffffffffffffff1681526020016000151581525090565b82805482825590600052602060002090810192821561188a579160200282015b82811115611889578251829080519060200190611879929190611767565b509160200191906001019061185b565b5b50905061189791906118b8565b5090565b5b808211156118b457600081600090555060010161189c565b5090565b5b808211156118d857600081816118cf91906118dc565b506001016118b9565b5090565b5080546118e8906124cc565b6000825580601f106118fa5750611919565b601f016020900490600052602060002090810190611918919061189b565b5b50565b600061192f61192a846122a7565b612276565b9050808382526020820190508260005b8581101561196f57813585016119558882611a0b565b84526020840193506020830192505060018101905061193f565b5050509392505050565b600061198c611987846122d3565b612276565b9050828152602081018484840111156119a457600080fd5b6119af84828561248a565b509392505050565b6000813590506119c6816125e5565b92915050565b600082601f8301126119dd57600080fd5b81356119ed84826020860161191c565b91505092915050565b600081359050611a05816125fc565b92915050565b600082601f830112611a1c57600080fd5b8135611a2c848260208601611979565b91505092915050565b600081359050611a4481612613565b92915050565b600060208284031215611a5c57600080fd5b6000611a6a848285016119b7565b91505092915050565b60008060408385031215611a8657600080fd5b6000611a94858286016119b7565b9250506020611aa585828601611a35565b9150509250929050565b60008060008060808587031215611ac557600080fd5b600085013567ffffffffffffffff811115611adf57600080fd5b611aeb87828801611a0b565b945050602085013567ffffffffffffffff811115611b0857600080fd5b611b1487828801611a0b565b935050604085013567ffffffffffffffff811115611b3157600080fd5b611b3d878288016119cc565b9250506060611b4e878288016119f6565b91505092959194509250565b600060208284031215611b6c57600080fd5b6000611b7a84828501611a35565b91505092915050565b60008060408385031215611b9657600080fd5b6000611ba485828601611a35565b925050602083013567ffffffffffffffff811115611bc157600080fd5b611bcd858286016119cc565b9150509250929050565b60008060008060808587031215611bed57600080fd5b6000611bfb87828801611a35565b945050602085013567ffffffffffffffff811115611c1857600080fd5b611c2487828801611a0b565b935050604085013567ffffffffffffffff811115611c4157600080fd5b611c4d87828801611a0b565b9250506060611c5e878288016119f6565b91505092959194509250565b6000611c768383611caa565b60208301905092915050565b6000611c8e8383611ea3565b905092915050565b6000611ca28383611fbb565b905092915050565b611cb381612442565b82525050565b611cc281612442565b82525050565b6000611cd382612333565b611cdd8185612386565b9350611ce883612303565b8060005b83811015611d19578151611d008882611c6a565b9750611d0b8361235f565b925050600181019050611cec565b5085935050505092915050565b6000611d318261233e565b611d3b8185612397565b935083602082028501611d4d85612313565b8060005b85811015611d895784840389528151611d6a8582611c82565b9450611d758361236c565b925060208a01995050600181019050611d51565b50829750879550505050505092915050565b6000611da68261233e565b611db081856123a8565b935083602082028501611dc285612313565b8060005b85811015611dfe5784840389528151611ddf8582611c82565b9450611dea8361236c565b925060208a01995050600181019050611dc6565b50829750879550505050505092915050565b6000611e1b82612349565b611e2581856123b9565b935083602082028501611e3785612323565b8060005b85811015611e735784840389528151611e548582611c96565b9450611e5f83612379565b925060208a01995050600181019050611e3b565b50829750879550505050505092915050565b611e8e81612454565b82525050565b611e9d81612454565b82525050565b6000611eae82612354565b611eb881856123ca565b9350611ec8818560208601612499565b611ed1816125d4565b840191505092915050565b6000611ee782612354565b611ef181856123db565b9350611f01818560208601612499565b611f0a816125d4565b840191505092915050565b6000611f226034836123db565b91507f4f6e6c7920746865206f7267616e697a6174696f6e2061646d696e2063616e2060008301527f706572666f726d207468697320616374696f6e2e0000000000000000000000006020830152604082019050919050565b6000611f886017836123db565b91507f4f7267616e697a6174696f6e206e6f7420666f756e642e0000000000000000006000830152602082019050919050565b600060c083016000830151611fd36000860182612052565b5060208301518482036020860152611feb8282611ea3565b915050604083015184820360408601526120058282611ea3565b9150506060830151848203606086015261201f8282611d26565b91505060808301516120346080860182611caa565b5060a083015161204760a0860182611e85565b508091505092915050565b61205b81612480565b82525050565b61206a81612480565b82525050565b60006020820190506120856000830184611cb9565b92915050565b600060208201905081810360008301526120a58184611cc8565b905092915050565b600060208201905081810360008301526120c78184611e10565b905092915050565b600060208201905081810360008301526120e881611f15565b9050919050565b6000602082019050818103600083015261210881611f7b565b9050919050565b60006020820190506121246000830184612061565b92915050565b600060408201905061213f6000830185612061565b81810360208301526121518184611d9b565b90509392505050565b600060a08201905061216f6000830188612061565b81810360208301526121818187611edc565b905081810360408301526121958186611edc565b90506121a46060830185611cb9565b6121b16080830184611e94565b9695505050505050565b600060a0820190506121d06000830188612061565b81810360208301526121e28187611edc565b905081810360408301526121f68186611edc565b9050818103606083015261220a8185611d9b565b90506122196080830184611e94565b9695505050505050565b60006080820190506122386000830187612061565b818103602083015261224a8186611edc565b9050818103604083015261225e8185611edc565b905061226d6060830184611e94565b95945050505050565b6000604051905081810181811067ffffffffffffffff8211171561229d5761229c6125a5565b5b8060405250919050565b600067ffffffffffffffff8211156122c2576122c16125a5565b5b602082029050602081019050919050565b600067ffffffffffffffff8211156122ee576122ed6125a5565b5b601f19601f8301169050602081019050919050565b6000819050602082019050919050565b6000819050602082019050919050565b6000819050602082019050919050565b600081519050919050565b600081519050919050565b600081519050919050565b600081519050919050565b6000602082019050919050565b6000602082019050919050565b6000602082019050919050565b600082825260208201905092915050565b600082825260208201905092915050565b600082825260208201905092915050565b600082825260208201905092915050565b600082825260208201905092915050565b600082825260208201905092915050565b60006123f782612480565b915061240283612480565b9250827fffffffffffffffffffffffffffffffffffffffffffffffffffffffffffffffff0382111561243757612436612547565b5b828201905092915050565b600061244d82612460565b9050919050565b60008115159050919050565b600073ffffffffffffffffffffffffffffffffffffffff82169050919050565b6000819050919050565b82818337600083830152505050565b60005b838110156124b757808201518184015260208101905061249c565b838111156124c6576000848401525b50505050565b600060028204905060018216806124e457607f821691505b602082108114156124f8576124f7612576565b5b50919050565b600061250982612480565b91507fffffffffffffffffffffffffffffffffffffffffffffffffffffffffffffffff82141561253c5761253b612547565b5b600182019050919050565b7f4e487b7100000000000000000000000000000000000000000000000000000000600052601160045260246000fd5b7f4e487b7100000000000000000000000000000000000000000000000000000000600052602260045260246000fd5b7f4e487b7100000000000000000000000000000000000000000000000000000000600052604160045260246000fd5b6000601f19601f8301169050919050565b6125ee81612442565b81146125f957600080fd5b50565b61260581612454565b811461261057600080fd5b50565b61261c81612480565b811461262757600080fd5b5056fea26469706673582212205a7e820979c374acd763e44f1187956ae17624f7f17634036de75d04385dd95964736f6c63430008000033",
  "linkReferences": {},
  "deployedLinkReferences": {}
}