{
  "_format": "hh-sol-artifact-1",
  "contractName": "OrganizationManager",
  "sourceName": "contracts/OrganizationManager.sol",
  "abi": [
    {
      "inputs": [],
      "stateMutability": "nonpayable",
      "type": "constructor"
    },
    {
      "anonymous": false,
      "inputs": [
        {
          "indexed": true,
          "internalType": "address",
          "name": "admin",
          "type": "address"
        },
        {
          "indexed": false,
          "internalType": "uint256",
          "name": "orgId",
          "type": "uint256"
        },
        {
          "indexed": false,
          "internalType": "string[]",
          "name": "newCategories",
          "type": "string[]"
        }
      ],
      "name": "HateSpeechCategoriesUpdated",
      "type": "event"
    },
    {
      "anonymous": false,
      "inputs": [
        {
          "indexed": true,
          "internalType": "address",
          "name": "admin",
          "type": "address"
        },
        {
          "indexed": false,
          "internalType": "uint256",
          "name": "orgId",
          "type": "uint256"
        },
        {
          "indexed": false,
          "internalType": "string",
          "name": "communityType",
          "type": "string"
        },
        {
          "indexed": false,
          "internalType": "string",
          "name": "context",
          "type": "string"
        },
        {
          "indexed": false,
          "internalType": "string",
          "name": "model",
          "type": "string"
        },
        {
          "indexed": false,
          "internalType": "bool",
          "name": "isPrivate",
          "type": "bool"
        }
      ],
      "name": "OrganizationCreated",
      "type": "event"
    },
    {
      "anonymous": false,
      "inputs": [
        {
          "indexed": true,
          "internalType": "address",
          "name": "admin",
          "type": "address"
        },
        {
          "indexed": false,
          "internalType": "uint256",
          "name": "orgId",
          "type": "uint256"
        },
        {
          "indexed": false,
          "internalType": "string",
          "name": "communityType",
          "type": "string"
        },
        {
          "indexed": false,
          "internalType": "string",
          "name": "context",
          "type": "string"
        },
        {
          "indexed": false,
          "internalType": "string",
          "name": "model",
          "type": "string"
        },
        {
          "indexed": false,
          "internalType": "bool",
          "name": "isPrivate",
          "type": "bool"
        }
      ],
      "name": "OrganizationUpdated",
      "type": "event"
    },
    {
      "inputs": [
        {
          "internalType": "string",
          "name": "_communityType",
          "type": "string"
        },
        {
          "internalType": "string",
          "name": "_context",
          "type": "string"
        },
        {
          "internalType": "string[]",
          "name": "_hateSpeechCategories",
          "type": "string[]"
        },
        {
          "internalType": "string",
          "name": "_model",
          "type": "string"
        },
        {
          "internalType": "bool",
          "name": "_isPrivate",
          "type": "bool"
        }
      ],
      "name": "createOrganization",
      "outputs": [],
      "stateMutability": "nonpayable",
      "type": "function"
    },
    {
      "inputs": [],
      "name": "getAllOrganizationAddresses",
      "outputs": [
        {
          "internalType": "address[]",
          "name": "",
          "type": "address[]"
        }
      ],
      "stateMutability": "view",
      "type": "function"
    },
    {
      "inputs": [
        {
          "internalType": "address",
          "name": "_admin",
          "type": "address"
        }
      ],
      "name": "getAllOrganizations",
      "outputs": [
        {
          "components": [
            {
              "internalType": "uint256",
              "name": "orgId",
              "type": "uint256"
            },
            {
              "internalType": "string",
              "name": "communityType",
              "type": "string"
            },
            {
              "internalType": "string",
              "name": "context",
              "type": "string"
            },
            {
              "internalType": "string[]",
              "name": "hateSpeechCategories",
              "type": "string[]"
            },
            {
              "internalType": "address",
              "name": "admin",
              "type": "address"
            },
            {
              "internalType": "string",
              "name": "model",
              "type": "string"
            },
            {
              "internalType": "bool",
              "name": "isPrivate",
              "type": "bool"
            }
          ],
          "internalType": "struct OrganizationManager.Organization[]",
          "name": "",
          "type": "tuple[]"
        }
      ],
      "stateMutability": "view",
      "type": "function"
    },
    {
      "inputs": [],
      "name": "getAllOrganizationsGlobal",
      "outputs": [
        {
          "components": [
            {
              "internalType": "uint256",
              "name": "orgId",
              "type": "uint256"
            },
            {
              "internalType": "string",
              "name": "communityType",
              "type": "string"
            },
            {
              "internalType": "string",
              "name": "context",
              "type": "string"
            },
            {
              "internalType": "string[]",
              "name": "hateSpeechCategories",
              "type": "string[]"
            },
            {
              "internalType": "address",
              "name": "admin",
              "type": "address"
            },
            {
              "internalType": "string",
              "name": "model",
              "type": "string"
            },
            {
              "internalType": "bool",
              "name": "isPrivate",
              "type": "bool"
            }
          ],
          "internalType": "struct OrganizationManager.Organization[]",
          "name": "",
          "type": "tuple[]"
        }
      ],
      "stateMutability": "view",
      "type": "function"
    },
    {
      "inputs": [
        {
          "internalType": "address",
          "name": "_admin",
          "type": "address"
        },
        {
          "internalType": "uint256",
          "name": "_orgId",
          "type": "uint256"
        }
      ],
      "name": "getOrganizationById",
      "outputs": [
        {
          "internalType": "uint256",
          "name": "orgId",
          "type": "uint256"
        },
        {
          "internalType": "string",
          "name": "communityType",
          "type": "string"
        },
        {
          "internalType": "string",
          "name": "context",
          "type": "string"
        },
        {
          "internalType": "string[]",
          "name": "hateSpeechCategories",
          "type": "string[]"
        },
        {
          "internalType": "string",
          "name": "model",
          "type": "string"
        },
        {
          "internalType": "bool",
          "name": "isPrivate",
          "type": "bool"
        }
      ],
      "stateMutability": "view",
      "type": "function"
    },
    {
      "inputs": [],
      "name": "nextOrgId",
      "outputs": [
        {
          "internalType": "uint256",
          "name": "",
          "type": "uint256"
        }
      ],
      "stateMutability": "view",
      "type": "function"
    },
    {
      "inputs": [
        {
          "internalType": "uint256",
          "name": "",
          "type": "uint256"
        }
      ],
      "name": "organizationAddresses",
      "outputs": [
        {
          "internalType": "address",
          "name": "",
          "type": "address"
        }
      ],
      "stateMutability": "view",
      "type": "function"
    },
    {
      "inputs": [
        {
          "internalType": "address",
          "name": "",
          "type": "address"
        },
        {
          "internalType": "uint256",
          "name": "",
          "type": "uint256"
        }
      ],
      "name": "organizations",
      "outputs": [
        {
          "internalType": "uint256",
          "name": "orgId",
          "type": "uint256"
        },
        {
          "internalType": "string",
          "name": "communityType",
          "type": "string"
        },
        {
          "internalType": "string",
          "name": "context",
          "type": "string"
        },
        {
          "internalType": "address",
          "name": "admin",
          "type": "address"
        },
        {
          "internalType": "string",
          "name": "model",
          "type": "string"
        },
        {
          "internalType": "bool",
          "name": "isPrivate",
          "type": "bool"
        }
      ],
      "stateMutability": "view",
      "type": "function"
    },
    {
      "inputs": [
        {
          "internalType": "uint256",
          "name": "orgIndex",
          "type": "uint256"
        },
        {
          "internalType": "string[]",
          "name": "_newCategories",
          "type": "string[]"
        }
      ],
      "name": "updateHateSpeechCategories",
      "outputs": [],
      "stateMutability": "nonpayable",
      "type": "function"
    },
    {
      "inputs": [
        {
          "internalType": "uint256",
          "name": "orgIndex",
          "type": "uint256"
        },
        {
          "internalType": "string",
          "name": "_communityType",
          "type": "string"
        },
        {
          "internalType": "string",
          "name": "_context",
          "type": "string"
        },
        {
          "internalType": "string",
          "name": "_model",
          "type": "string"
        },
        {
          "internalType": "bool",
          "name": "_isPrivate",
          "type": "bool"
        }
      ],
      "name": "updateOrganization",
      "outputs": [],
      "stateMutability": "nonpayable",
      "type": "function"
    }
  ],
  "bytecode": "0x608060405234801561001057600080fd5b5060016002819055506129a1806100286000396000f3fe608060405234801561001057600080fd5b506004361061009e5760003560e01c806394f6534f1161006657806394f6534f14610162578063a0d61da31461017e578063a13c29c51461019a578063c8fbcbbb146101b6578063db770955146101e65761009e565b806308ae3620146100a3578063335b5822146100c15780633a555eff146100f657806370325ab4146101265780638a5f067c14610144575b600080fd5b6100ab61021b565b6040516100b8919061238d565b60405180910390f35b6100db60048036038101906100d69190611d03565b6102a9565b6040516100ed969594939291906124d2565b60405180910390f35b610110600480360381019061010b9190611cda565b6106ab565b60405161011d91906123af565b60405180910390f35b61012e610a52565b60405161013b91906123af565b60405180910390f35b61014c611050565b6040516101599190612411565b60405180910390f35b61017c60048036038101906101779190611d3f565b611056565b005b61019860048036038101906101939190611e93565b61131a565b005b6101b460048036038101906101af9190611e3f565b611582565b005b6101d060048036038101906101cb9190611e16565b611793565b6040516101dd9190612372565b60405180910390f35b61020060048036038101906101fb9190611d03565b6117d2565b6040516102129695949392919061245c565b60405180910390f35b6060600180548060200260200160405190810160405280929190818152602001828054801561029f57602002820191906000526020600020905b8160009054906101000a900473ffffffffffffffffffffffffffffffffffffffff1673ffffffffffffffffffffffffffffffffffffffff1681526020019060010190808311610255575b5050505050905090565b60006060806060806000806000808a73ffffffffffffffffffffffffffffffffffffffff1673ffffffffffffffffffffffffffffffffffffffff168152602001908152602001600020905060005b8180549050811015610665578882828154811061033d577f4e487b7100000000000000000000000000000000000000000000000000000000600052603260045260246000fd5b9060005260206000209060070201600001541415610652576000828281548110610390577f4e487b7100000000000000000000000000000000000000000000000000000000600052603260045260246000fd5b906000526020600020906007020190508060000154816001018260020183600301846005018560060160009054906101000a900460ff168480546103d39061280d565b80601f01602080910402602001604051908101604052809291908181526020018280546103ff9061280d565b801561044c5780601f106104215761010080835404028352916020019161044c565b820191906000526020600020905b81548152906001019060200180831161042f57829003601f168201915b5050505050945083805461045f9061280d565b80601f016020809104026020016040519081016040528092919081815260200182805461048b9061280d565b80156104d85780601f106104ad576101008083540402835291602001916104d8565b820191906000526020600020905b8154815290600101906020018083116104bb57829003601f168201915b5050505050935082805480602002602001604051908101604052809291908181526020016000905b828210156105ac57838290600052602060002001805461051f9061280d565b80601f016020809104026020016040519081016040528092919081815260200182805461054b9061280d565b80156105985780601f1061056d57610100808354040283529160200191610598565b820191906000526020600020905b81548152906001019060200180831161057b57829003601f168201915b505050505081526020019060010190610500565b5050505092508180546105be9061280d565b80601f01602080910402602001604051908101604052809291908181526020018280546105ea9061280d565b80156106375780601f1061060c57610100808354040283529160200191610637565b820191906000526020600020905b81548152906001019060200180831161061a57829003601f168201915b505050505091509850985098509850985098505050506106a1565b808061065d9061283f565b9150506102f7565b506040517f08c379a0000000000000000000000000000000000000000000000000000000008152600401610698906123f1565b60405180910390fd5b9295509295509295565b60606000808373ffffffffffffffffffffffffffffffffffffffff1673ffffffffffffffffffffffffffffffffffffffff168152602001908152602001600020805480602002602001604051908101604052809291908181526020016000905b82821015610a4757838290600052602060002090600702016040518060e0016040529081600082015481526020016001820180546107489061280d565b80601f01602080910402602001604051908101604052809291908181526020018280546107749061280d565b80156107c15780601f10610796576101008083540402835291602001916107c1565b820191906000526020600020905b8154815290600101906020018083116107a457829003601f168201915b505050505081526020016002820180546107da9061280d565b80601f01602080910402602001604051908101604052809291908181526020018280546108069061280d565b80156108535780601f1061082857610100808354040283529160200191610853565b820191906000526020600020905b81548152906001019060200180831161083657829003601f168201915b5050505050815260200160038201805480602002602001604051908101604052809291908181526020016000905b8282101561092d5783829060005260206000200180546108a09061280d565b80601f01602080910402602001604051908101604052809291908181526020018280546108cc9061280d565b80156109195780601f106108ee57610100808354040283529160200191610919565b820191906000526020600020905b8154815290600101906020018083116108fc57829003601f168201915b505050505081526020019060010190610881565b5050505081526020016004820160009054906101000a900473ffffffffffffffffffffffffffffffffffffffff1673ffffffffffffffffffffffffffffffffffffffff1673ffffffffffffffffffffffffffffffffffffffff16815260200160058201805461099b9061280d565b80601f01602080910402602001604051908101604052809291908181526020018280546109c79061280d565b8015610a145780601f106109e957610100808354040283529160200191610a14565b820191906000526020600020905b8154815290600101906020018083116109f757829003601f168201915b505050505081526020016006820160009054906101000a900460ff1615151515815250508152602001906001019061070b565b505050509050919050565b60606000805b600180549050811015610b2b5760008060018381548110610aa2577f4e487b7100000000000000000000000000000000000000000000000000000000600052603260045260246000fd5b9060005260206000200160009054906101000a900473ffffffffffffffffffffffffffffffffffffffff1673ffffffffffffffffffffffffffffffffffffffff1673ffffffffffffffffffffffffffffffffffffffff1681526020019081526020016000208054905082610b16919061272d565b91508080610b239061283f565b915050610a58565b5060008167ffffffffffffffff811115610b6e577f4e487b7100000000000000000000000000000000000000000000000000000000600052604160045260246000fd5b604051908082528060200260200182016040528015610ba757816020015b610b946119f0565b815260200190600190039081610b8c5790505b5090506000805b60018054905081101561104657600080600060018481548110610bfa577f4e487b7100000000000000000000000000000000000000000000000000000000600052603260045260246000fd5b9060005260206000200160009054906101000a900473ffffffffffffffffffffffffffffffffffffffff1673ffffffffffffffffffffffffffffffffffffffff1673ffffffffffffffffffffffffffffffffffffffff168152602001908152602001600020905060005b818054905081101561103157818181548110610ca9577f4e487b7100000000000000000000000000000000000000000000000000000000600052603260045260246000fd5b90600052602060002090600702016040518060e001604052908160008201548152602001600182018054610cdc9061280d565b80601f0160208091040260200160405190810160405280929190818152602001828054610d089061280d565b8015610d555780601f10610d2a57610100808354040283529160200191610d55565b820191906000526020600020905b815481529060010190602001808311610d3857829003601f168201915b50505050508152602001600282018054610d6e9061280d565b80601f0160208091040260200160405190810160405280929190818152602001828054610d9a9061280d565b8015610de75780601f10610dbc57610100808354040283529160200191610de7565b820191906000526020600020905b815481529060010190602001808311610dca57829003601f168201915b5050505050815260200160038201805480602002602001604051908101604052809291908181526020016000905b82821015610ec1578382906000526020600020018054610e349061280d565b80601f0160208091040260200160405190810160405280929190818152602001828054610e609061280d565b8015610ead5780601f10610e8257610100808354040283529160200191610ead565b820191906000526020600020905b815481529060010190602001808311610e9057829003601f168201915b505050505081526020019060010190610e15565b5050505081526020016004820160009054906101000a900473ffffffffffffffffffffffffffffffffffffffff1673ffffffffffffffffffffffffffffffffffffffff1673ffffffffffffffffffffffffffffffffffffffff168152602001600582018054610f2f9061280d565b80601f0160208091040260200160405190810160405280929190818152602001828054610f5b9061280d565b8015610fa85780601f10610f7d57610100808354040283529160200191610fa8565b820191906000526020600020905b815481529060010190602001808311610f8b57829003601f168201915b505050505081526020016006820160009054906101000a900460ff161515151581525050858581518110611005577f4e487b7100000000000000000000000000000000000000000000000000000000600052603260045260246000fd5b6020026020010181905250838061101b9061283f565b94505080806110299061283f565b915050610c64565b5050808061103e9061283f565b915050610bae565b5081935050505090565b60025481565b60006002549050600260008154809291906110709061283f565b91905055506000803373ffffffffffffffffffffffffffffffffffffffff1673ffffffffffffffffffffffffffffffffffffffff1681526020019081526020016000206040518060e001604052808381526020018881526020018781526020018681526020013373ffffffffffffffffffffffffffffffffffffffff168152602001858152602001841515815250908060018154018082558091505060019003906000526020600020906007020160009091909190915060008201518160000155602082015181600101908051906020019061114d929190611a45565b50604082015181600201908051906020019061116a929190611a45565b506060820151816003019080519060200190611187929190611acb565b5060808201518160040160006101000a81548173ffffffffffffffffffffffffffffffffffffffff021916908373ffffffffffffffffffffffffffffffffffffffff16021790555060a08201518160050190805190602001906111eb929190611a45565b5060c08201518160060160006101000a81548160ff021916908315150217905550505060016000803373ffffffffffffffffffffffffffffffffffffffff1673ffffffffffffffffffffffffffffffffffffffff1681526020019081526020016000208054905014156112bc576001339080600181540180825580915050600190039060005260206000200160009091909190916101000a81548173ffffffffffffffffffffffffffffffffffffffff021916908373ffffffffffffffffffffffffffffffffffffffff1602179055505b3373ffffffffffffffffffffffffffffffffffffffff167fe6a4bc18a39ea4448c0738e2a9bd66fe1d125010c933768f19ac5e7c6e2077c0828888878760405161130a95949392919061254f565b60405180910390a2505050505050565b843373ffffffffffffffffffffffffffffffffffffffff166000803373ffffffffffffffffffffffffffffffffffffffff1673ffffffffffffffffffffffffffffffffffffffff16815260200190815260200160002082815481106113a8577f4e487b7100000000000000000000000000000000000000000000000000000000600052603260045260246000fd5b906000526020600020906007020160040160009054906101000a900473ffffffffffffffffffffffffffffffffffffffff1673ffffffffffffffffffffffffffffffffffffffff1614611430576040517f08c379a0000000000000000000000000000000000000000000000000000000008152600401611427906123d1565b60405180910390fd5b60008060003373ffffffffffffffffffffffffffffffffffffffff1673ffffffffffffffffffffffffffffffffffffffff16815260200190815260200160002087815481106114a8577f4e487b7100000000000000000000000000000000000000000000000000000000600052603260045260246000fd5b90600052602060002090600702019050858160010190805190602001906114d0929190611a45565b50848160020190805190602001906114e9929190611a45565b5083816005019080519060200190611502929190611a45565b50828160060160006101000a81548160ff0219169083151502179055503373ffffffffffffffffffffffffffffffffffffffff167f401d26e57f9b3f72b816c07ca3b5f8020ae7e97002492351f79abbf2134016f082600001548888888860405161157195949392919061254f565b60405180910390a250505050505050565b813373ffffffffffffffffffffffffffffffffffffffff166000803373ffffffffffffffffffffffffffffffffffffffff1673ffffffffffffffffffffffffffffffffffffffff1681526020019081526020016000208281548110611610577f4e487b7100000000000000000000000000000000000000000000000000000000600052603260045260246000fd5b906000526020600020906007020160040160009054906101000a900473ffffffffffffffffffffffffffffffffffffffff1673ffffffffffffffffffffffffffffffffffffffff1614611698576040517f08c379a000000000000000000000000000000000000000000000000000000000815260040161168f906123d1565b60405180910390fd5b60008060003373ffffffffffffffffffffffffffffffffffffffff1673ffffffffffffffffffffffffffffffffffffffff1681526020019081526020016000208481548110611710577f4e487b7100000000000000000000000000000000000000000000000000000000600052603260045260246000fd5b9060005260206000209060070201905082816003019080519060200190611738929190611acb565b503373ffffffffffffffffffffffffffffffffffffffff167f5be17eb02029781349250ec247b059b82e6107517b65b6493bd304f0636a8e0b82600001548560405161178592919061242c565b60405180910390a250505050565b600181815481106117a357600080fd5b906000526020600020016000915054906101000a900473ffffffffffffffffffffffffffffffffffffffff1681565b600060205281600052604060002081815481106117ee57600080fd5b9060005260206000209060070201600091509150508060000154908060010180546118189061280d565b80601f01602080910402602001604051908101604052809291908181526020018280546118449061280d565b80156118915780601f1061186657610100808354040283529160200191611891565b820191906000526020600020905b81548152906001019060200180831161187457829003601f168201915b5050505050908060020180546118a69061280d565b80601f01602080910402602001604051908101604052809291908181526020018280546118d29061280d565b801561191f5780601f106118f45761010080835404028352916020019161191f565b820191906000526020600020905b81548152906001019060200180831161190257829003601f168201915b5050505050908060040160009054906101000a900473ffffffffffffffffffffffffffffffffffffffff169080600501805461195a9061280d565b80601f01602080910402602001604051908101604052809291908181526020018280546119869061280d565b80156119d35780601f106119a8576101008083540402835291602001916119d3565b820191906000526020600020905b8154815290600101906020018083116119b657829003601f168201915b5050505050908060060160009054906101000a900460ff16905086565b6040518060e0016040528060008152602001606081526020016060815260200160608152602001600073ffffffffffffffffffffffffffffffffffffffff168152602001606081526020016000151581525090565b828054611a519061280d565b90600052602060002090601f016020900481019282611a735760008555611aba565b82601f10611a8c57805160ff1916838001178555611aba565b82800160010185558215611aba579182015b82811115611ab9578251825591602001919060010190611a9e565b5b509050611ac79190611b2b565b5090565b828054828255906000526020600020908101928215611b1a579160200282015b82811115611b19578251829080519060200190611b09929190611a45565b5091602001919060010190611aeb565b5b509050611b279190611b48565b5090565b5b80821115611b44576000816000905550600101611b2c565b5090565b5b80821115611b685760008181611b5f9190611b6c565b50600101611b49565b5090565b508054611b789061280d565b6000825580601f10611b8a5750611ba9565b601f016020900490600052602060002090810190611ba89190611b2b565b5b50565b6000611bbf611bba846125e8565b6125b7565b9050808382526020820190508260005b85811015611bff5781358501611be58882611c9b565b845260208401935060208301925050600181019050611bcf565b5050509392505050565b6000611c1c611c1784612614565b6125b7565b905082815260208101848484011115611c3457600080fd5b611c3f8482856127cb565b509392505050565b600081359050611c5681612926565b92915050565b600082601f830112611c6d57600080fd5b8135611c7d848260208601611bac565b91505092915050565b600081359050611c958161293d565b92915050565b600082601f830112611cac57600080fd5b8135611cbc848260208601611c09565b91505092915050565b600081359050611cd481612954565b92915050565b600060208284031215611cec57600080fd5b6000611cfa84828501611c47565b91505092915050565b60008060408385031215611d1657600080fd5b6000611d2485828601611c47565b9250506020611d3585828601611cc5565b9150509250929050565b600080600080600060a08688031215611d5757600080fd5b600086013567ffffffffffffffff811115611d7157600080fd5b611d7d88828901611c9b565b955050602086013567ffffffffffffffff811115611d9a57600080fd5b611da688828901611c9b565b945050604086013567ffffffffffffffff811115611dc357600080fd5b611dcf88828901611c5c565b935050606086013567ffffffffffffffff811115611dec57600080fd5b611df888828901611c9b565b9250506080611e0988828901611c86565b9150509295509295909350565b600060208284031215611e2857600080fd5b6000611e3684828501611cc5565b91505092915050565b60008060408385031215611e5257600080fd5b6000611e6085828601611cc5565b925050602083013567ffffffffffffffff811115611e7d57600080fd5b611e8985828601611c5c565b9150509250929050565b600080600080600060a08688031215611eab57600080fd5b6000611eb988828901611cc5565b955050602086013567ffffffffffffffff811115611ed657600080fd5b611ee288828901611c9b565b945050604086013567ffffffffffffffff811115611eff57600080fd5b611f0b88828901611c9b565b935050606086013567ffffffffffffffff811115611f2857600080fd5b611f3488828901611c9b565b9250506080611f4588828901611c86565b9150509295509295909350565b6000611f5e8383611f92565b60208301905092915050565b6000611f76838361218b565b905092915050565b6000611f8a83836122a3565b905092915050565b611f9b81612783565b82525050565b611faa81612783565b82525050565b6000611fbb82612674565b611fc581856126c7565b9350611fd083612644565b8060005b83811015612001578151611fe88882611f52565b9750611ff3836126a0565b925050600181019050611fd4565b5085935050505092915050565b60006120198261267f565b61202381856126d8565b93508360208202850161203585612654565b8060005b8581101561207157848403895281516120528582611f6a565b945061205d836126ad565b925060208a01995050600181019050612039565b50829750879550505050505092915050565b600061208e8261267f565b61209881856126e9565b9350836020820285016120aa85612654565b8060005b858110156120e657848403895281516120c78582611f6a565b94506120d2836126ad565b925060208a019950506001810190506120ae565b50829750879550505050505092915050565b60006121038261268a565b61210d81856126fa565b93508360208202850161211f85612664565b8060005b8581101561215b578484038952815161213c8582611f7e565b9450612147836126ba565b925060208a01995050600181019050612123565b50829750879550505050505092915050565b61217681612795565b82525050565b61218581612795565b82525050565b600061219682612695565b6121a0818561270b565b93506121b08185602086016127da565b6121b981612915565b840191505092915050565b60006121cf82612695565b6121d9818561271c565b93506121e98185602086016127da565b6121f281612915565b840191505092915050565b600061220a60348361271c565b91507f4f6e6c7920746865206f7267616e697a6174696f6e2061646d696e2063616e2060008301527f706572666f726d207468697320616374696f6e2e0000000000000000000000006020830152604082019050919050565b600061227060178361271c565b91507f4f7267616e697a6174696f6e206e6f7420666f756e642e0000000000000000006000830152602082019050919050565b600060e0830160008301516122bb6000860182612354565b50602083015184820360208601526122d3828261218b565b915050604083015184820360408601526122ed828261218b565b91505060608301518482036060860152612307828261200e565b915050608083015161231c6080860182611f92565b5060a083015184820360a0860152612334828261218b565b91505060c083015161234960c086018261216d565b508091505092915050565b61235d816127c1565b82525050565b61236c816127c1565b82525050565b60006020820190506123876000830184611fa1565b92915050565b600060208201905081810360008301526123a78184611fb0565b905092915050565b600060208201905081810360008301526123c981846120f8565b905092915050565b600060208201905081810360008301526123ea816121fd565b9050919050565b6000602082019050818103600083015261240a81612263565b9050919050565b60006020820190506124266000830184612363565b92915050565b60006040820190506124416000830185612363565b81810360208301526124538184612083565b90509392505050565b600060c0820190506124716000830189612363565b818103602083015261248381886121c4565b9050818103604083015261249781876121c4565b90506124a66060830186611fa1565b81810360808301526124b881856121c4565b90506124c760a083018461217c565b979650505050505050565b600060c0820190506124e76000830189612363565b81810360208301526124f981886121c4565b9050818103604083015261250d81876121c4565b905081810360608301526125218186612083565b9050818103608083015261253581856121c4565b905061254460a083018461217c565b979650505050505050565b600060a0820190506125646000830188612363565b818103602083015261257681876121c4565b9050818103604083015261258a81866121c4565b9050818103606083015261259e81856121c4565b90506125ad608083018461217c565b9695505050505050565b6000604051905081810181811067ffffffffffffffff821117156125de576125dd6128e6565b5b8060405250919050565b600067ffffffffffffffff821115612603576126026128e6565b5b602082029050602081019050919050565b600067ffffffffffffffff82111561262f5761262e6128e6565b5b601f19601f8301169050602081019050919050565b6000819050602082019050919050565b6000819050602082019050919050565b6000819050602082019050919050565b600081519050919050565b600081519050919050565b600081519050919050565b600081519050919050565b6000602082019050919050565b6000602082019050919050565b6000602082019050919050565b600082825260208201905092915050565b600082825260208201905092915050565b600082825260208201905092915050565b600082825260208201905092915050565b600082825260208201905092915050565b600082825260208201905092915050565b6000612738826127c1565b9150612743836127c1565b9250827fffffffffffffffffffffffffffffffffffffffffffffffffffffffffffffffff0382111561277857612777612888565b5b828201905092915050565b600061278e826127a1565b9050919050565b60008115159050919050565b600073ffffffffffffffffffffffffffffffffffffffff82169050919050565b6000819050919050565b82818337600083830152505050565b60005b838110156127f85780820151818401526020810190506127dd565b83811115612807576000848401525b50505050565b6000600282049050600182168061282557607f821691505b60208210811415612839576128386128b7565b5b50919050565b600061284a826127c1565b91507fffffffffffffffffffffffffffffffffffffffffffffffffffffffffffffffff82141561287d5761287c612888565b5b600182019050919050565b7f4e487b7100000000000000000000000000000000000000000000000000000000600052601160045260246000fd5b7f4e487b7100000000000000000000000000000000000000000000000000000000600052602260045260246000fd5b7f4e487b7100000000000000000000000000000000000000000000000000000000600052604160045260246000fd5b6000601f19601f8301169050919050565b61292f81612783565b811461293a57600080fd5b50565b61294681612795565b811461295157600080fd5b50565b61295d816127c1565b811461296857600080fd5b5056fea26469706673582212203df1ddd6ca56ca1eb3ec3f91e64a458cf6b0f28f13fea678ba8ee92559e311e264736f6c63430008000033",
  "linkReferences": {},
  "deployedLinkReferences": {}
}